:100000000C943E000C945B000C945B000C945B0021
:100010000C945B000C945B000C945B000C945B00F4
:100020000C945B000C945B000C945B000C945B00E4
:100030000C945B000C945B000C945B000C945B00D4
:100040000C945B000C945B000C945B000C945B00C4
:100050000C945B000C945B000C945B000C945B00B4
:100060000C945B000C945B000C945B000C945B00A4
:100070000C945B000C945B000C945B0011241FBE7D
:10008000CFEFD8E0DEBFCDBF11E0A0E0B1E0E8E403
:10009000F4E102C005900D92A032B107D9F721E03A
:1000A000A0E2B1E001C01D92A232B207E1F70E94C6
:1000B0001F080C941B0A0C940000CF93DF93EC01F3
:1000C0000E946206CE0101960E94FD06CE010396B3
:1000D0000E949507CE0104960E947607CE010596F0
:1000E0000E94E106CE0106960E943105CE010896D7
:1000F0000E948C0382E090E09A8789871C861B8689
:10010000DF91CF910895EF92FF921F93CF93DF93EA
:10011000EC017C018FEFE81AF80A66E0C7010E9443
:100120005507182F67E0C7010E945507982F2981AE
:1001300030E0275F3F4F81E01217130609F02CF4DF
:100140009217130609F00CF480E0DF91CF911F9114
:10015000FF90EF90089506960E94B3059BEF980FCD
:1001600081E0953108F080E0089506960E94B3057D
:10017000982F81E0953108F080E008950F931F9348
:10018000CF93DF93EC018C010D5F1F4FCE010E94D6
:10019000B50081110DC062E0CE010E94660666EED8
:1001A000C8010E94B5076AEAC8010E949907EECF0C
:1001B000C8010E94F00763E0CE01DF91CF911F914B
:1001C0000F910C9466069C0180910101882369F0CF
:1001D000C90107960E94D8052FEF80E792E02150D1
:1001E00080409040E1F700C000000895CF92DF9278
:1001F000EF92FF920F931F93CF93DF9300D000D025
:1002000000D0CDB7DEB78C017C012FEFE21AF20AE5
:1002100066E0C7010E9455078E8367E0C7010E9410
:1002200055078D83D80111968C91282F30E050E02E
:1002300040E029833A834B835C83CA01B9010E9461
:10024000FE086B017C019E81892F90E0B0E0A0E068
:1002500089839A83AB83BC83BC01CD010E94FC08D7
:100260009601A70169837A838B839C8369817A8154
:100270008B819C810E945B0820E030E048EC52E4D6
:1002800069837A838B839C8369817A818B819C814A
:100290000E94AE0969837A838B839C8369817A810A
:1002A0008B819C810E94CD086E833D81232F30E09D
:1002B00050E040E029833A834B835C83CA01B90153
:1002C0000E94FC089601A70169837A838B839C8333
:1002D00069817A818B819C810E945B0820E030E0FB
:1002E00048EC52E469837A838B839C8369817A81A9
:1002F0008B819C810E94AE0969837A838B839C8366
:1003000069817A818B819C810E94CD084E814E3615
:1003100068F16E3608F464E65E81593C10F088ECB2
:100320008E839E81995C9D836E36F0F0693C08F067
:1003300068EC695C698349816D81C80103960E94FC
:10034000C20749816D81C80126960FB6F894DEBFB9
:100350000FBECDBFDF91CF911F910F91FF90EF9016
:10036000DF90CF900C94E3001982E5CF1D82DCCFA3
:10037000AF92BF92CF92DF92EF92FF920F931F93B3
:10038000CF93DF93EC0103967C016E0196E0C90EDA
:10039000D11C5E0185E0A80EB11CCE010E94AB000D
:1003A000882309F1C6010E94B305182F682FC501E3
:1003B0000E94F6068AEE810F833080F015501E30C1
:1003C00080F41BE909EB402F612FC7010E94C2078F
:1003D000402F612FCE010E94E300DFCF19EB0BE924
:1003E000F2CF1BE9FCCF40E060E0C7010E94C207EA
:1003F00040E060E0CE01DF91CF911F910F91FF901F
:10040000EF90DF90CF90BF90AF900C94E300DF921D
:10041000EF92FF920F931F93CF93DF93EC018C0128
:10042000095F1F4FC8010E945106E82ED92E23965E
:100430006E2D7D2DC8010E9423068823B1F0C801CE
:100440000E940B06F82EC8010E940B06482F6F2D44
:10045000CE010E94C2072FEF80E792E0215080403A
:100460009040E1F700C00000E3CFCE01DF91CF91D3
:100470001F910F91FF90EF90DF900C94F007EC012B
:100480008C010C5F1F4F63E0C8010E947A07811145
:100490000DC060E0CE010E9466062FEF83ED90E371
:1004A000215080409040E1F700C0000063E0CE01A1
:1004B0000E946606E8CFCF93DF93EC01239668ECA9
:1004C000CE010E94B5072FEF83ED90E321508040CD
:1004D0009040E1F700C00000CE010E94EC072FEF32
:1004E00083ED90E3215080409040E1F700C0000090
:1004F000DF91CF910895CF93DF9300D000D000D04B
:10050000CDB7DEB78D839E83ED80FE802FEFE21A9C
:10051000F20A0D811E810B5F1F4F66E0C7010E942A
:100520005507282F30E050E040E029833A834B8381
:100530005C83CA01B9010E94FC085B016C01ED817A
:10054000FE818181282F30E050E040E029833A830A
:100550004B835C83CA01B9010E94FE089B01AC0178
:10056000A982BA82CB82DC8269817A818B819C816B
:100570000E945B0820E030E048EC52E469837A8313
:100580008B839C8369817A818B819C810E94AE09D7
:1005900069837A838B839C8369817A818B819C8137
:1005A0000E94CD086E3608F464E6693C08F068ECF9
:1005B000C8010E94F606B1CFEC018C010A5F1F4F03
:1005C00025968FE097E20197F1F700C00000C8017F
:1005D0000E94B305682FCE010E94F606F2CFEC010F
:1005E00086E0B82E7E0125E0E20EF11C6E0187E068
:1005F000C80ED11C8E010C5F1F4F94E0A92E25E080
:10060000922EE0912101E730E0F7F0E0E35EF54F54
:100610000C94500863E0C8010E947A07811108C059
:100620004FE061E0CE010E94930690922101E9CF54
:1006300062E0C8010E947A07882319F34FE060E066
:10064000CE010E94930681E004C0CE010E94B80151
:1006500082E080932101D5CF60E0CE010E94660642
:1006600063E0C8010E947A07811106C0CE010E9492
:10067000BE0010920101E7CF62E0C8010E947A0734
:10068000882319F0A0922101BCCFCE010E948300E3
:10069000882309F4B6CF83E0DCCF61E0CE010E946D
:1006A0006606CE010E94AB008111CDCFCE010E9423
:1006B000F600F7CF61E0CE010E9466066985C701AA
:1006C0000E94F6066A85C7010E94F60660E0C7012F
:1006D0000E94F606C6010E942C069FEF23ED80E3E0
:1006E000915020408040E1F700C00000B09221010D
:1006F00088CFCE010E940702F9CF60E0CE010E94B0
:1007000066067FCF089580EA809302011092B900B7
:1007100080E28093B8000895FC0180E88083CF01D7
:100720000C948303982F9370891305C0880F806AF7
:100730008093020108958FEF0895FA0194EA24E866
:100740009093BC008091BC0087FFFCCF8091020198
:100750008093BB002093BC008091BC0087FFFCCF3E
:100760008091B900883161F784EA8093BC00809160
:10077000BC0087FFFCCF809102018093BB0084E81E
:100780008093BC008091BC0087FFFCCF7093BB00BE
:1007900084E88093BC008091BC0087FFFCCF60930D
:1007A000BB0084E88093BC008091BC0087FFFCCF35
:1007B0008091BC0087FFFCCF84EA8093BC008091CD
:1007C000BC0087FFFCCF809102018F5F8093BB004C
:1007D00084E88093BC008091BC0087FFFCCF84E854
:1007E0008093BC008091BC0087FFFCCF8091BB0050
:1007F000808384E98093BC0080E0089594EA34E823
:100800009093BC008091BC0087FFFCCF80910201D7
:100810008093BB003093BC008091BC0087FFFCCF6D
:100820008091B900883161F784EA8093BC0080919F
:10083000BC0087FFFCCF809102018093BB0084E85D
:100840008093BC008091BC0087FFFCCF7093BB00FD
:1008500084E88093BC008091BC0087FFFCCF60934C
:10086000BB0084E88093BC008091BC0087FFFCCF74
:1008700084EA8093BC008091BC0087FFFCCF80910C
:1008800002018F5F8093BB0084E88093BC0080915D
:10089000BC0087FFFCCF84EC222381F0213009F4D7
:1008A00084E88093BC009091BC0097FFFCCFFA01D4
:1008B0009091BB0091932150AF01EECF84E98093DA
:1008C000BC0080E0089594EA24E89093BC008091F5
:1008D000BC0087FFFCCF809102018093BB00209376
:1008E000BC008091BC0087FFFCCF8091B9008831AB
:1008F00061F784EA8093BC008091BC0087FFFCCF45
:10090000809102018093BB0084E88093BC008091B9
:10091000BC0087FFFCCF7093BB0084E88093BC00D1
:100920008091BC0087FFFCCF6093BB0084E880937C
:10093000BC008091BC0087FFFCCF4093BB0084E8E3
:100940008093BC008091BC0087FFFCCF84E980933A
:10095000BC0080E00895FB01260F372F311DDC011C
:100960008C918150990B862B9F2B2817390718F0F3
:100970009C012F5F3F4F822F8E1B24EA34E8209387
:10098000BC009091BC0097FFFCCF90910201909326
:10099000BB003093BC009091BC0097FFFCCF9091BE
:1009A000B900983161F794EA9093BC009091BC0033
:1009B00097FFFCCF909102019093BB0094E8909335
:1009C000BC009091BC0097FFFCCFF093BB0094E873
:1009D0009093BC009091BC0097FFFCCFE093BB00CC
:1009E00094E89093BC009091BC0097FFFCCF982FA7
:1009F00024E8992369F0FA0131913093BB002093E8
:100A0000BC003091BC0037FFFCCF9150AF01F1CF5B
:100A100094E99093BC000895DF92EF92FF920F93B8
:100A20001F93CF93DF93D82ED92F7B018A01C22F3A
:100A30002C2FA801B7018D2D9D2F0E94AB04282FCC
:100A400030E0E20EF31EC81B020F131FC111F0CFDE
:100A500080E0DF91CF911F910F91FF90EF90DF9099
:100A600008950C980895DF92EF92FF920F931F93D1
:100A7000CF93DF93CDB7DEB72A970FB6F894DEBFDA
:100A80000FBECDBF062F10E0C8018E5A91099C0100
:100A9000990F440B550B29833A834B835C83CA011E
:100AA000B9010E94FE08DC01CB01BF7789839A83DC
:100AB000AB83BC83BC01CD010E94CD08698784E073
:100AC000E82E81E0F82E94E09A8794E0D92ED701A1
:100AD0008D917D01F801E81BF1099F01FF0F440B87
:100AE000550B29833A834B835C83CA01B9010E9469
:100AF000FE08DC01CB01BF7789839A83AB83BC837B
:100B00003985232F30E050E040E02D833E834F8332
:100B10005887CA01B9010E94FE089B01AC01698196
:100B20007A818B819C810E94560887FF08C0698169
:100B30007A818B819C810E94CD086987DA844A85FD
:100B40004F5F4A874F3119F68D2D2A960FB6F894CC
:100B5000DEBF0FBECDBFDF91CF911F910F91FF90F0
:100B6000EF90DF9008950F931F93CF93DF930F9231
:100B7000CDB7DEB78C01CE0101960E94F30764E089
:100B8000CE0101960E94FC07BC017695679576958B
:100B90006795C8010E943305182FCE0101960E9467
:100BA000F907812F0F90DF91CF911F910F91089539
:100BB000EF92FF921F93CF93DF93EC01862F142FB8
:100BC0007E019FEFE91AF90A6A817B81482FC701EC
:100BD0000E9463048FE097E20197F1F700C00000E4
:100BE0006A817B816F5F7F4F7B836A83412FC7015F
:100BF0000E9463048FE097E20197F1F700C00000C4
:100C00008A819B8101969B838A83DF91CF911F917B
:100C1000FF90EF900895CF93DF93EC016C817D817D
:100C2000AC0101960E949D038FE097E20197F1F7D6
:100C300000C000008C819D8101969D838C838881FA
:100C4000DF91CF910895FC0181E024813581621705
:100C5000730708F480E008950F931F93CF93DF93F9
:100C6000EC018C010F5F1F4F4B8170E060E0C80109
:100C70000E9463048FE097E20197F1F700C0000043
:100C80004A8161E070E0C8010E9463048FE097E24E
:100C90000197F1F700C00000DF91CF911F910F91F4
:100CA00008951F93CF93DF93D82FC92F0E940B066F
:100CB000182F8D2F9C2F0E940B06912FDF91CF9123
:100CC0001F91089581B1836081B90895CF93DF9317
:100CD000D82FC92F623071F028F4611108C0119823
:100CE000109A02C06330D9F0DF91CF910895109827
:100CF000119AFACF61E00E9466068FE697E10197AC
:100D0000F1F700C0000060E08D2F9C2F0E94660666
:100D10008FE99FE00197F1F700C00000E5CF82B1B5
:100D20008C7F82B9E1CF0F931F93CF93DF93182F5E
:100D3000D92FC62F042F662339F0613019F1DF91C6
:100D4000CF911F910F910895C017C9F360E0812FD3
:100D50009D2F0E9466062FEF80E792E02150804091
:100D60009040E1F700C0000082B18C7F82B92FEF84
:100D700080E792E0215080409040E1F700C0000001
:100D8000CF5FE2CFC0E0C017D1F261E0812F9D2F8D
:100D90000E9466062FEF80E792E02150804090404D
:100DA000E1F700C0000082B18C7F82B92FEF80E7AD
:100DB00092E0215080409040E1F700C00000CF5FFA
:100DC000E2CF1092C5008FEC8093C4001092C00057
:100DD00088E18093C10086E08093C20008958091ED
:100DE000C00087FFFCCF8091C60008958091C000AD
:100DF00085FFFCCF6093C60008958F929F92AF92BB
:100E0000BF92CF92DF92EF92FF920F931F93CF93F7
:100E1000DF930F92CDB7DEB78C01FC0110821182F7
:100E200081B18F7381B9CE0101967C010E94F307D5
:100E30004AEF842E912CD12CC12CB12CA12C66E030
:100E4000C7010E94FC079695879596958795A80EF1
:100E5000B91E67E0C7010E94FC0796958795969595
:100E60008795C80ED91E91E0891A910841F72AEF9B
:100E700030E0C501B9010E943C08F8016083C60159
:100E8000B9010E943C086183C7010E94F9070F90D5
:100E9000DF91CF911F910F91FF90EF90DF90CF9056
:100EA000BF90AF909F908F9008950F931F93CF9313
:100EB000DF930F92CDB7DEB7162FCE0101960E94B9
:100EC000F307612FCE0101960E94FC078C01CE0131
:100ED00001960E94F907C801969587959695879582
:100EE0000F90DF91CF911F910F9108958AB1837F69
:100EF0008AB9089589B190E0062E02C0959587952C
:100F00000A94E2F780FF0FC08FE19EE40197F1F7AA
:100F100000C0000089B190E002C0959587956A9560
:100F2000E2F78170089580E0089584B18C6384B9FC
:100F3000089568BD84B5816284BD84B58F7E84BD0B
:100F400085B5826085BD249A2D98089568BD84B5C5
:100F5000816284BD84B58F7E84BD85B5826085BD88
:100F600084B1806384B92D9A089567BD84B5816882
:100F700084BD84B58F7B84BD85B5826085BD239A91
:100F80002A9808951F93CF93DF93D82FC92F142F3A
:100F9000611108C017BC111108C018BCDF91CF91B6
:100FA0001F9108950E94B507F6CF612F8D2F9C2FBA
:100FB000DF91CF911F910C94990767BD84B581682B
:100FC00084BD84B58F7B84BD85B5826085BD84B1C9
:100FD0008C6084B92A9A089517BC089518BC0895A6
:100FE00017BC18BC089510927C0086E880937A00A4
:100FF000089510927A00089580917C00807E8093FD
:101000007C0080917C006770682B60937C008091ED
:101010007A00806480937A0080917A0084FFFCCF0C
:1010200080917A00806180937A002091780080918D
:10103000790090E0982F8827820F911D0895CDB7F1
:10104000DEB72D970FB6F894DEBF0FBECDBFCE0131
:1010500001960E945D00CE0101960E94EF02CE0132
:1010600009960E94820390E080E02D960FB6F894D6
:10107000DEBF0FBECDBF0895AA1BBB1B51E107C049
:10108000AA1FBB1FA617B70710F0A61BB70B881F18
:10109000991F5A95A9F780959095BC01CD010895A7
:1010A000EE0FFF1F0590F491E02D09940E9439097D
:1010B00008F481E008950E946F080C9474090E945E
:1010C0006D0958F00E94660940F029F45F3F29F04D
:1010D0000C945D0951110C94A8090C9463090E94A9
:1010E000850968F39923B1F3552391F3951B550BAB
:1010F000BB27AA2762177307840738F09F5F5F4FEB
:10110000220F331F441FAA1FA9F335D00E2E3AF029
:10111000E0E832D091505040E695001CCAF72BD041
:10112000FE2F29D0660F771F881FBB1F2617370792
:101130004807AB07B0E809F0BB0B802DBF01FF27C4
:1011400093585F4F3AF09E3F510578F00C945D093B
:101150000C94A8095F3FE4F3983ED4F38695779505
:101160006795B795F7959F5FC9F7880F911D96957D
:10117000879597F90895E1E0660F771F881FBB1FD9
:10118000621773078407BA0720F0621B730B840B86
:10119000BA0BEE1F88F7E09508950E948D0988F03C
:1011A0009F5798F0B92F9927B751B0F0E1F0660F2B
:1011B000771F881F991F1AF0BA95C9F714C0B1306C
:1011C00091F00E94A709B1E008950C94A709672F38
:1011D000782F8827B85F39F0B93FCCF3869577959B
:1011E0006795B395D9F73EF4909580957095619584
:1011F0007F4F8F4F9F4F0895E89409C097FB3EF4AF
:1012000090958095709561957F4F8F4F9F4F992353
:10121000A9F0F92F96E9BB279395F69587957795D1
:101220006795B795F111F8CFFAF4BB0F11F460FF91
:101230001BC06F5F7F4F8F4F9F4F16C0882311F0E9
:1012400096E911C0772321F09EE8872F762F05C0FD
:10125000662371F096E8862F70E060E02AF09A9598
:10126000660F771F881FDAF7880F9695879597F98D
:101270000895990F0008550FAA0BE0E8FEEF161627
:101280001706E807F907C0F012161306E407F5077A
:1012900098F0621B730B840B950B39F40A2661F0EE
:1012A000232B242B252B21F408950A2609F4A14091
:1012B000A6958FEF811D811D089597F99F6780E89E
:1012C00070E060E008959FEF80EC089500240A9498
:1012D0001616170618060906089500240A94121611
:1012E0001306140605060895092E0394000C11F444
:1012F000882352F0BB0F40F4BF2B11F460FF04C0F1
:101300006F5F7F4F8F4F9F4F089557FD9058440F49
:10131000551F59F05F3F71F04795880F97FB991F54
:1013200061F09F3F79F08795089512161306140611
:10133000551FF2CF4695F1DF08C01616170618069E
:10134000991FF1CF86957105610508940895E89479
:10135000BB2766277727CB0197F908950E94C1091B
:101360000C9474090E94660938F00E946D0920F0FF
:10137000952311F00C945D090C94630911240C94CD
:10138000A8090E94850970F3959FC1F3950F50E05D
:10139000551F629FF001729FBB27F00DB11D639F27
:1013A000AA27F00DB11DAA1F649F6627B00DA11DCD
:1013B000661F829F2227B00DA11D621F739FB00D73
:1013C000A11D621F839FA00D611D221F749F3327E3
:1013D000A00D611D231F849F600D211D822F762F7C
:1013E0006A2F11249F5750409AF0F1F088234AF059
:1013F000EE0FFF1FBB1F661F771F881F91505040C5
:10140000A9F79E3F510580F00C945D090C94A80942
:101410005F3FE4F3983ED4F3869577956795B7954B
:10142000F795E7959F5FC1F7FE2B880F911D969565
:10143000879597F90895F894FFCF0A0325032C03A5
:081440004D035A0379037D03FB
:101448000101A001AEB9B8B7AC92817F716D696135
:101458005B57524E4D4744413E3D3A393836350088
:00000001FF
